:02000300037484
:02000500054BA9
:02000700027382
:02000900061ED1
:03000000020444B3
:0C044400787FE4F6D8FD75815602048B29
:1005C000112208065B4F666D7D077F6F3F390F7004
:1005D0004080460133010238FFFF012100C10218AB
:1005E0003F000000000000000000000000000000CC
:1005F00000000000000000000002360000023D0084
:0906000000023B0000023400007E
:100374007F0112018B7F0212018B7F0312018BE438
:10038400F580E5367054E537B40800504D90039875
:10039400F82828730203B00203B40203B80203BCB2
:1003A4000203C00203C80203D00203D8D2A4800E01
:1003B400D2A48012D2A48016D2A4801AC2A4D2A33A
:1003C400D2A28016C2A4D2A3C2A2800EC2A4C2A387
:1003D400D2A28006C2A4C2A3C2A2E53945387002E3
:1003E4008010E5394538602AE52165377002E53625
:1003F4006008E537253E243F80263002047F0080D4
:100404000DE537253E243FF8E62422F8E6FF8F80E9
:100414008016E539B4FF11E538B4FF0C743F253775
:10042400F8E62422F8E6F5800537E537700205364C
:100434005337077536007D017F02120214020383CD
:10054B00E53945387038E533C39408400E053EE570
:10055B003E7002053D533E0F753D00E4F53BF53C07
:10056B00D3E53C9403E53B6480948050D37DBC7F02
:10057B0002120214053CE53C70E6053B80E2E539CE
:10058B0064014538600AE539B4FFB5E538B4FFB00E
:10059B00B202E4F53BF53CD3E53C9402E53B6480C9
:1005AB009480509C7DAE7F02120214053CE53C709A
:0505BB00E6053B80E2B3
:0C061E0012060A7D467F0212021480F4CE
:1002730012062A8F3AE53A700302036A641570473F
:10028300E539B4FF13E538B4FF0EE4F538F539F575
:1002930021F53DF53E02036AE5394538600BE53942
:1002A30064014538600302036AE539453870047F09
:1002B3000180027F007538008F39E4F521F53DF5A3
:1002C3003E75330102036AE53AB41624E539640145
:1002D3004538600302036A0521E521D394085003DE
:1002E30002036A752108053EE53E707B053D807774
:1002F300E53AB4172974FFF538F539E4F534F535E3
:10030300743F2535F8E4F60535E5357002053464A8
:1003130018453470EBE4F53DF53EF5218049E53AA7
:1003230064186043E53AD39410503CE539640145C1
:1003330038700BE521253E243FF8A63A8029E5399C
:10034300B4FF24E538B4FF1FE521253E243FF8A67A
:100353003A05210533E521D39408400B752108059F
:100363003EE53E7002053D7D0A7F02120214020241
:010373007316
:03000B00020013DD
:10000E00C2AF80FE3212001285D00B75D008FAC234
:10001E008CE58A241FF58AE58C34FCF58CD28CECA9
:10002E00241AF8E6BC030274FFC39581B414004091
:10003E00CF7904781116E608700BC2AFE630E103F3
:10004E004418F6D2AF08D9EDEA8BD0300003D201B6
:10005E0022D50DFAC0E0C0D0C0F0C083C082C0006F
:10006E00C001C002C003C004C005C006C007E50C35
:10007E00232412F87440C2AF46F6D2AFD200E50C7C
:10008E00FF232412F80F0808EFB50C0610010343E6
:10009E008701BF04047F007812E630E4E800E50C27
:1000AE00C39F5020050C7419250CF8E6FDA6810897
:1000BE00E6AE0CBE030274FFCDF8E86D60E008E614
:1000CE00C0E080F6E50CD39F4027E50C241AF8E635
:1000DE00AE0CBE030274FFFD18E6CDF8E5816D602F
:1000EE0006D0E0F61880F5E50C2419C8F6150C803C
:1000FE00D3750D05E50C232412F87F04C2AFE6106C
:02010E00E61EEB
:1001100030E00310E20C7F0030E10730E3047F0899
:1001200054F4C2E7C6D2AF54804207C20022F6D2CE
:10013000AFD007D006D005D004D003D002D001D074
:1001400000D082D083D0F0D0D0D0E0C20022781985
:10015000A68174036006FF0876FFDFFB7F04E47866
:1001600011F608F608DFFA78127630900003740171
:1001700093C0E0E493C0E0750D05438901758A18CA
:0B018000758CFCD28CD2AFD2A92203F8
:05062A00E4AF10F51023
:01062F0022A8
:1004D000E4FF20B1027F1520B0027F1620B2027F18
:1004E0001720B3027F187590FFC2932097027F01F7
:1004F0002096027F052095027F092094027F0D75CA
:1005000090FFC2922097027F022096027F062095DC
:10051000027F0A2094027F0E7590FFC291209702FD
:100520007F032096027F072095027F0B2094027F95
:100530000F7590FFC2902097027F042096027F08DB
:0A0540002095027F0C2094027F102A
:01054A00228E
:10060A00850E0F1204D08F0EE50F6007E50E7003FA
:03061A00850F1039
:01061D0022BA
:10018B00EFD3940340037FFF2274122F2FF8E62046
:10019B00E5F4C2AFE64430F6D2AFAE0CEEC39F50DF
:1001AB00210E74192EF8E6F908E618BE030274FF47
:1001BB00FDED69600909E71919F7090980F31616AE
:1001CB0080DAEED39F400405810581EED39F402258
:1001DB0074192EF808E6F9EEB50C02A9811806067B
:1001EB00E6FDED6960091919E70909F71980F31E96
:1001FB0080D9EF2419F8E604F8EF2F04900003934D
:09020B00F608EF2F93F67F0022A4
:100214008FF0E4FFFEE50C232411F8C2A930F70D9A
:100224007F08E6600B2DF660325030800730F1060F
:10023400EDF660277E020830F010C2AFE610E72525
:100244000E30E20CD2AF7F048014C2AFE610E71583
:1002540054EC4EF6D2AFD2A902008A7F0808EF44CC
:0F02640083F4C2AF56C6D2AFD2A954804FFF2247
:1004500002014EE493A3F8E493A34003F68001F273
:1004600008DFF48029E493A3F85407240CC8C333AD
:10047000C4540F4420C8834004F456800146F6DF7C
:10048000E4800B01020408102040809005C0E47E47
:10049000019360BCA3FF543F30E509541FFEE49371
:1004A000A360010ECF54C025E060A840B8E493A338
:1004B000FAE493A3F8E493A3C8C582C8CAC583CA63
:1004C000F0A3C8C582C8CAC583CADFE9DEE780BE1B
:0106090000F0
:00000001FF
