:020003000ACF22
:020005000D1DCF
:02000700085996
:020009000FAD39
:03000000020DBC32
:0C0DBC00787FE4F6D8FD758120020E035C
:100F9C0008065B4F666D7D077F6F3F390F70408091
:010FAC0046FE
:100EC3004100AF144200B3FFFF4100AC00C1025820
:100ED30000B90102030F0B0402050E0602081003FA
:100EE300020C0E070804000000004100B20041009C
:0C0EF300B8004200B600004200B0000051
:100ACF007F0112018B7F0212018B7F0312018BE4D6
:100ADF00F5809000B2E0FFB40800504D900AF2F894
:100AEF00282873020B0A020B0E020B12020B1602BE
:100AFF000B1A020B22020B2A020B32D2A4800ED247
:100B0F00A48012D2A48016D2A4801AC2A4D2A3D2D7
:100B1F00A28016C2A4D2A3C2A2800EC2A4C2A3D224
:100B2F00A28006C2A4C2A3C2A29000B3E0FCA3E0BD
:100B3F00FD4C70079000B8E02F804DED4C60399060
:100B4F0000B2E0FF9000ACE06F60099000B8E0FEEB
:100B5F00EF2E80343002047F0080199000B8E0FF40
:100B6F009000B2E02F24B9F582E43400F583E090D1
:100B7F000F9C93FF8F8080209000B3E0B4FF19A3E8
:100B8F00E0B4FF149000B2E024B9F582E43400F52C
:100B9F0083E0900F9C93F5809000B2E004F0E05456
:0C0BAF0007F07D017F02120214020ADE32
:100D1D009000B3E07002A3E0704C9000AFE0FFC311
:100D2D00940840139000B8E004F0E0FEEF24F9FFC2
:100D3D00EE8FF084E5F0F0E49000B6F0A3F0D390E0
:100D4D0000B7E094039000B6E06480948050C17DBC
:100D5D00BC7F021202149000B7E004F070E0900026
:100D6D00B6E004F080D89000B3E0FEA3E0FF64018C
:100D7D004E6008EFF47002EEF47095B202E490004C
:100D8D00B6F0A3F0D39000B7E094029000B6E06403
:100D9D008094804003020D1D7DAE7F0212021490DF
:0F0DAD0000B7E004F070DD9000B6E004F080D5F0
:0C0FAD00120F687D467F0212021480F4CF
:10085900120FB99000B5EFF070030209A4E0FF642C
:100869001570529000B3E0FCA3E0FDBCFF15BDFF7D
:1008790012E49000B3F0A3F09000ACF09000B8F04F
:100889000209A4ED4C6009ED64014C60030209A45E
:10089900ED4C70047E0180027E00EEFD9000B3E411
:1008A900F0A3EDF0E49000ACF09000B8F09000AF48
:1008B90004F00209A4EFB416219000B3E07004A378
:1008C900E0640160030209A49000ACE004F0E0D305
:1008D900940850030209A402099B9000B5E0FFB4F3
:1008E900174874FF9000B3F0A3F0E49000B0F0A3B0
:1008F900F09000B0E0FCA3E0FDC39418EC64809490
:1009090080501C74B92DF58274003CF583E4F09095
:1009190000B1E004F070DA9000B0E004F080D2E4B5
:100929009000B8F09000ACF08071EF6418606C90A2
:1009390000B5E0FFD3941050629000B3E0FCA3E04F
:10094900FD64014C70179000B8E0FE9000ACE02EF9
:1009590024B9F582E43400F583EFF0803EBCFF3B17
:10096900BDFF389000B5E0FF9000B8E0FE9000AC04
:10097900E02E24B9F582E43400F583EFF09000AC61
:10098900E004F09000AFE004F09000ACE0D39408EC
:1009990040097408F09000B8E004F07D0A7F021263
:0509A9000214020859D0
:03000B00020013DD
:10000E00C2AF80FE3212001285D00B75D008FAC234
:10001E008CE58A241FF58AE58C34FCF58CD28CECA9
:10002E002417F8E6BC030274FFC39581B414004094
:10003E00CF7904780E16E608700BC2AFE630E103F6
:10004E004418F6D2AF08D9EDEA8BD0300003D201B6
:10005E0022D50DFAC0E0C0D0C0F0C083C082C0006F
:10006E00C001C002C003C004C005C006C007E50C35
:10007E0023240FF87440C2AF46F6D2AFD200E50C7F
:10008E00FF23240FF80F0808EFB50C0610010343E9
:10009E008701BF04047F00780FE630E4E800E50C2A
:1000AE00C39F5020050C7416250CF8E6FDA681089A
:1000BE00E6AE0CBE030274FFCDF8E86D60E008E614
:1000CE00C0E080F6E50CD39F4027E50C2417F8E638
:1000DE00AE0CBE030274FFFD18E6CDF8E5816D602F
:1000EE0006D0E0F61880F5E50C2416C8F6150C803F
:1000FE00D3750D05E50C23240FF87F04C2AFE6106F
:02010E00E61EEB
:1001100030E00310E20C7F0030E10730E3047F0899
:1001200054F4C2E7C6D2AF54804207C20022F6D2CE
:10013000AFD007D006D005D004D003D002D001D074
:1001400000D082D083D0F0D0D0D0E0C20022781688
:10015000A68174036006FF0876FFDFFB7F04E47866
:100160000EF608F608DFFA780F7630900003740177
:1001700093C0E0E493C0E0750D05438901758A18CA
:0B018000758CFCD28CD2AFD2A92203F8
:070FB9009000DEE0FFE4F010
:010FC000220E
:100E4800E4FF20B1027F1520B0027F1620B2027F96
:100E58001720B3027F187590FFC2932097027F0175
:100E68002096027F052095027F092094027F0D7548
:100E780090FFC2922097027F022096027F0620955B
:100E8800027F0A2094027F0E7590FFC2912097027C
:100E98007F032096027F072095027F0B2094027F14
:100EA8000F7590FFC2902097027F042096027F085A
:0A0EB8002095027F0C2094027F10A9
:010EC200220D
:100F68009000DCE0A3F0120E489000DCEFF0A3E064
:0E0F7800FF600B9000DCE070059000DEEFF0F3
:010F86002248
:100EFF0042006E00004100240041004D0041006897
:100F0F000041005C0042004B0000420025000042FF
:040F1F00006B000162
:1009AE009000DFEBF0A3EAF0A3E9F0E490005CF036
:1009BE00120F8790006DEFF0E490004DF090006DF7
:1009CE00E0FF90004DE0FEC39F4003020AC7900077
:1009DE00DFE0FBA3E0FAA3E0F98E8275830012023A
:1009EE0073FFC394305003020A8FEFD39439400340
:1009FE00020A8FE490006EF0A3F090006E80529089
:100A0E00004DE0FF2401FDE433FC90006DE0FBC3DC
:100A1E00ED9B7480F86C985060EF2401FFE433FE78
:100A2E009000DFE0FBA3E0FAA3E0F98F828E831241
:100A3E000273FFC394304041EFD39439503B900082
:100A4E004DE004F0F582758300120273FF90006E84
:100A5E00E475F001120320ADF0FC90005CE075F03F
:100A6E0003A42427F582E43400F583E5822DF58274
:100A7E00E5833CF583EFF0808690005CE004F08027
:100A8E002F9000DFE0FBA3E0FAA3E0F990004DE029
:100A9E00F582758300120273FF90005CE0FE04F095
:100AAE00EE75F003A42427F582E43400F583EFF00D
:100ABE0090004DE004F00209CB90005CE0FF7E0058
:010ACE002205
:100F4800EF640D6004EFB40E057E007F0122EF64AC
:100F58000F6004EFB410057E007F0222E4FEFF223A
:100499009000D7EBF0A3EAF0A3E9F0A3ECF0A3ED09
:1004A900F0E490004DF090004DE0FFD39000DBE0C8
:1004B9009F7480F89000DAE0648098500302065B2C
:1004C9009000D7E0FBA3E0FAA3E0F990004DE075B6
:1004D900F00AA4F58285F083120273FFC3943040B9
:1004E90045EFD39439503F90004DE075F00AA4FFD1
:1004F9009000D7A3A3E02FF9EA35F0FAC0019000E4
:100509006EE475F001120320AFF0FE7C007D03124A
:1005190002C274002FF974003EA801FC7D01D001CC
:1005290012040E0206529000D7E0FBA3E0FAA3E002
:10053900F990004DE075F00AA4F58285F083120266
:1005490073FFB40B0302063FEF640C705090002454
:10055900E0244DF582E43400F583E0640B603590C6
:100569000024E014F0244EF582E43400F583E0FF22
:1005790090006EE475F001120320ADF0FC900000CC
:1005890075F003ED120336EC75F003A42583F583AA
:10059900EFF080B9900024E014F002065290002494
:1005A900E060779000D7E0FBA3E0FAA3E0F99000C0
:1005B9004DE075F00AA4F58285F083120273FF12EB
:1005C9000F48AC06AD07900024E0244DF582E434D1
:1005D90000F583E0FF120F48C3EF9DEC6480F8EE4D
:1005E9006480984035900024E014F0244EF582E4AC
:1005F9003400F583E0FF90006EE475F001120320EA
:10060900ADF0FC90000075F003ED120336EC75F0C7
:1006190003A42583F583EFF080839000D7E0FBA343
:10062900E0FAA3E0F990004DE075F00AA4F582859F
:10063900F083120273FF900024E0FE04F0744E2E42
:10064900F582E43400F583EFF090004DE004F00208
:1006590004AF900024E0603114F0244EF582E434B4
:1006690000F583E0FF90006EE475F001120320AD00
:10067900F0FC90000075F003ED120336EC75F00301
:0A068900A42583F583EFF080C92259
:100C700090002574FFF5F012030AAFF0FE7C007DB2
:0E0C8000051202C274702FF974003EFA7B0157
:100C8E009000E2EBF0A3EAF0A3E9F09000E2E0FBC3
:100C9E00A3E0FAA3E0F9120F87900069EEF0A3EF3C
:100CAE00F0E490004BF0A3F0A3F090004DE0FFD3E2
:100CBE0090006AE09F7480F8900069E0648098402C
:100CCE00459000E2E0FBA3E0FAA3E0F990004DE0CE
:100CDE00F582758300120273FF3395E0FEEF24D088
:100CEE00FBEE34FFFA90004BE0FEA3E0FF7C007DAC
:100CFE000A1202C2EF2BFFEE3A90004BF0A3EFF078
:0F0D0E00A3E004F080A490004BE0FEA3E0FF22DE
:100BBB009000E5EBF0A3EAF0A3E9F0AB05AA04E49F
:100BCB00900025F0A3F07C007D0AAF03AE02120269
:100BDB00D4ED2430FF900025E475F001120320FCC6
:100BEB00745D25F0F58274003CF583EFF07C007D9D
:100BFB000AAF03AE021202D4AA06AB07EB4A70C6C9
:100C0B00900025A3E01490004DF0E4900068F09064
:100C1B00004DE0FFC394004032745D2FF582E43445
:100C2B0000F583E0FF9000E5E0FBA3E0FAA3E0F919
:100C3B00900068E0F582758300EF1202A090004DE2
:100C4B00E014F0900068E004F080C49000E5E0FB55
:100C5B00A3E0FAA3E0F9900025E0FEA3E0F5828E75
:050C6B0083E40202A079
:10069300E4900025F0A3F090004DF090004DE0FFB2
:1006A300FDD390006FE09D7480F890006EE064804D
:1006B30098500302084FEF75F003A42400F9740067
:1006C30035F0FA7B01120F87900069EEF0A3EFF08B
:1006D30090004DE075F003A42400F582E43400F5A6
:1006E30083E0FFC39430406FEFD394395069900097
:1006F3004DE075F003A42400F9740035F0FA7B0192
:10070300C001900025E475F001120320AFF0FE7CD8
:10071300007D051202C274702FF974003EA801FC1B
:100723007D01D00112040E900069E0FEA3E0FF906A
:100733000025E0FCA3E090006B75F005120336EC96
:1007430075F005A42583F583E5822FF582E5833EC5
:07075300F583E4F002084603
:10075A00120C709000D1EEF0A3EFF0120C70900022
:10076A00D3EEF0A3EFF0E4A3F0A3F090004DE07510
:10077A00F003A42400F582E43400F583E0FBB40D11
:10078A001C9000D1E0FCA3E0FD9000D4E02DFE9087
:10079A0000D3E03C9000D5F0A3CEF0806DEBB40E10
:1007AA00199000D1E0FEA3E0FFC39000D4E09FFFC0
:1007BA009000D3E09E9000D5804C90004DE075F0FB
:1007CA0003A42400F582E43400F583E0FBB40F159A
:1007DA009000D1E0FCA3E0FDA3E0FEA3E0FF12023B
:1007EA00C2A3EE8021EBB410219000D1E0FCA3E07B
:1007FA00FD4C70057EFF7FFF229000D3E0FEA3E050
:10080A00FF1202D4A3EEF0A3EFF0900025E0FEA3BE
:10081A00E0FF7C007D051202C274702FF974003E5D
:10082A00FA7B019000D5E0FCA3E0FD120BBB90001F
:0C083A0026E004F07006900025E004F0B9
:1008460090004DE004F002069E7B017A007970125A
:030856000C8E22E3
:100F2400E4900024F090006EF0A3F01209AE90005B
:100F34005AEEF0FCA3EFF0FD7B017A00792712044E
:040F44009902069375
:10018B00EFD3940340037FFF22740F2F2FF8E62049
:10019B00E5F4C2AFE64430F6D2AFAE0CEEC39F50DF
:1001AB00210E74162EF8E6F908E618BE030274FF4A
:1001BB00FDED69600909E71919F7090980F31616AE
:1001CB0080DAEED39F400405810581EED39F402258
:1001DB0074162EF808E6F9EEB50C02A9811806067E
:1001EB00E6FDED6960091919E70909F71980F31E96
:1001FB0080D9EF2416F8E604F8EF2F049000039350
:09020B00F608EF2F93F67F0022A4
:100214008FF0E4FFFEE50C23240EF8C2A930F70D9D
:100224007F08E6600B2DF660325030800730F1060F
:10023400EDF660277E020830F010C2AFE610E72525
:100244000E30E20CD2AF7F048014C2AFE610E71583
:1002540054EC4EF6D2AFD2A902008A7F0808EF44CC
:0F02640083F4C2AF56C6D2AFD2A954804FFF2247
:100DC80002014EE493A3F8E493A34003F68001F2F2
:100DD80008DFF48029E493A3F85407240CC8C3332C
:100DE800C4540F4420C8834004F456800146F6DFFB
:100DF800E4800B0102040810204080900EC3E47EBA
:100E0800019360BCA3FF543F30E509541FFEE493EF
:100E1800A360010ECF54C025E060A840B8E493A3B6
:100E2800FAE493A3F8E493A3C8C582C8CAC583CAE1
:100E3800F0A3C8C582C8CAC583CADFE9DEE780BE99
:010F230000CD
:10027300BB010CE58229F582E5833AF583E0225040
:1002830006E92582F8E622BBFE06E92582F8E2228A
:0D029300E58229F582E5833AF583E49322A4
:1002A000F8BB010DE58229F582E5833AF583E8F094
:1002B000225006E92582C8F622BBFE05E92582C840
:0202C000F22228
:1002C200EF8DF0A4A8F0CF8CF0A428CE8DF0A42E50
:0202D200FE220A
:1002D400C2D5EC30E709B2D5E4C39DFDE49CFCEE45
:1002E40030E715B2D5E4C39FFFE49EFE120444C375
:1002F400E49DFDE49CFC800312044430D507C3E470
:060304009FFFE49EFE22B3
:10030A00C5F0F8A3E028F0C5F0F8E582158270027E
:06031A001583E038F0221B
:10032000A3F8E0C5F025F0F0E58215827002158390
:06033000E0C838F0E822ED
:0C033600A42582F582E5F03583F58322D2
:10034200E709F60870FA8046E709F20870FA803E7B
:1003520088828C83E709F0A370FA807EE309F608AD
:1003620070FA8076E309F20870FA806E88828C83D4
:10037200E309F0A370FA806289828A83E0A3F60817
:1003820070FA805689828A83E0A3F20870FA804A62
:1003920080D280FA80C680D4806580F2803180105D
:1003A20080A680EA809A80A880DA80E280CA8031C2
:1003B20089828A83ECFAE493A3C8C582C8CCC58338
:1003C200CCF0A3C8C582C8CCC583CC70E9800D89A6
:1003D200828A83E493A3F60870F9ECFAA9F0EDFBA4
:1003E2002289828A83ECFAE0A3C8C582C8CCC5837D
:1003F200CCF0A3C8C582C8CCC583CC70EA80DD89A5
:10040200828A83E493A3F20870F980CE88F0ED2407
:1004120002B4040050C4F582EB2402B4040050BAC2
:0904220023234582239003927309
:100F8700E4FFFE12042B600C0FEF70010E09E970ED
:050F9700F20A80EF22C8
:10042B00BB010689828A83E0225002E722BBFE02CF
:09043B00E32289828A83E4932202
:10044400BC000BBE0029EF8DF084FFADF022E4CC9C
:10045400F875F008EF2FFFEE33FEEC33FCEE9DEC65
:10046400984005FCEE9DFE0FD5F0E9E4CEFD22EDAB
:10047400F8F5F0EE8420D21CFEADF075F008EF2FF5
:10048400FFED33FD4007985006D5F0F222C398FDE6
:050494000FD5F0EA2283
:00000001FF
