:02000300058571
:02000500067182
:02000700027382
:0200090008CF1E
:03000000020710E4
:0C071000787FE4F6D8FD758120020757C1
:1008BE0008065B4F666D7D077F6F3F390F70408076
:0108CE0046E3
:1008170041000501420009FFFF41000000C10244F9
:1008270000010000C00258000F0000000000000097
:1008370000000000000000000000000000000000B1
:10084700004100080041000E0042000C0000420079
:0308570006000098
:100585007F0112018B7F0212018B7F0312018BE425
:10059500F580900008E0FFB40800504D9005A8F8DC
:1005A5002828730205C00205C40205C80205CC024D
:1005B50005D00205D80205E00205E8D2A4800ED2D6
:1005C500A48012D2A48016D2A4801AC2A4D2A3D227
:1005D500A28016C2A4D2A3C2A2800EC2A4C2A3D274
:1005E500A28006C2A4C2A3C2A2900009E0FCA3E0B7
:1005F500FD4C700790000EE02F804DED4C6039905A
:100605000008E0FF900000E06F600990000EE0FE3A
:10061500EF2E80343002047F00801990000EE0FF39
:10062500900008E02F240FF582E43400F583E09074
:1006350008BE93FF8F808020900009E0B4FF19A3C6
:10064500E0B4FF14900008E0240FF582E43400F5CF
:1006550083E09008BE93F580900008E004F0E05434
:0C06650007F07D017F02120214020594D0
:10067100900009E07002A3E0704C900005E0FFC318
:100681009408401390000EE004F0E0FEEF24F9FF1F
:10069100EE8FF084E5F0F0E490000CF0A3F0D3903D
:1006A100000DE0940390000CE06480948050C17DC3
:1006B100BC7F0212021490000DE004F070E0900083
:1006C1000CE004F080D8900009E0FEA3E0FF640193
:1006D1004E6008EFF47002EEF47095B202E49000FF
:1006E1000CF0A3F0D390000DE0940290000CE064B4
:1006F10080948040030206717DAE7F021202149045
:0F070100000DE004F070DD90000CE004F080D5F6
:0C08CF0012089F7D467F0212021480F484
:100273001208DB90000BEFF07003020470E0FF64E0
:10028300157052900009E0FCA3E0FDBCFF15BDFF13
:1002930012E4900009F0A3F0900000F090000EF03B
:1002A300020470ED4C6009ED64014C6003020470BC
:1002B300ED4C70047E0180027E00EEFD900009E4A7
:1002C300F0A3EDF0E4900000F090000EF090000534
:1002D30004F0020470EFB41621900009E07004A347
:1002E300E064016003020470900000E004F0E0D3D6
:1002F3009408500302047002046790000BE0FFB4FB
:10030300174974FF900009F0A3F0E4900006F0A3EE
:10031300F0900006E0FCA3E0FDC39418EC64809425
:1003230080501C740F2DF58274003CF583E4F0902B
:100333000007E004F070DA900006E004F080D2E4F5
:1003430090000EF0900000F0020470EF6418600358
:100353000204049000011204860000C002E490002D
:1003630006F0A3F0900006E0FEA3E0FFC39418EEAE
:1003730064809480501C740F2FF58274003EF583C3
:10038300E4F0900007E004F070DA900006E004F077
:1003930080D2900006E4F0A37404F0900001E0FC26
:1003A300A3E0FDA3E0FEA3E0FFEC4D4E4F7003027C
:1003B3000470E47B0AFAF9F8900001A3A3A3E01206
:1003C300085B900006E0FCA3E0240FF58274003C78
:1003D300F583EBF0900001E0FCA3E0FDA3E0FEA3B6
:1003E300E0FFE47B0AFAF9F812085B9000011204BB
:1003F3007A900007E024FFF0900006E034FFF080DD
:100403009A90000BE0FFD394105062900009E0FC37
:10041300A3E0FD64014C701790000EE0FE90000015
:10042300E02E240FF582E43400F583EFF0803EBC28
:10043300FF3BBDFF3890000BE0FF90000EE0FE9005
:100443000000E02E240FF582E43400F583EFF090F2
:100453000000E004F0900005E004F0900000E0D319
:10046300940840097408F090000EE004F07D0A7FC0
:0704730002120214020273E1
:03000B00020013DD
:10000E00C2AF80FE3212001285D00B75D008FAC234
:10001E008CE58A241FF58AE58C34FCF58CD28CECA9
:10002E002417F8E6BC030274FFC39581B414004094
:10003E00CF7904780E16E608700BC2AFE630E103F6
:10004E004418F6D2AF08D9EDEA8BD0300003D201B6
:10005E0022D50DFAC0E0C0D0C0F0C083C082C0006F
:10006E00C001C002C003C004C005C006C007E50C35
:10007E0023240FF87440C2AF46F6D2AFD200E50C7F
:10008E00FF23240FF80F0808EFB50C0610010343E9
:10009E008701BF04047F00780FE630E4E800E50C2A
:1000AE00C39F5020050C7416250CF8E6FDA681089A
:1000BE00E6AE0CBE030274FFCDF8E86D60E008E614
:1000CE00C0E080F6E50CD39F4027E50C2417F8E638
:1000DE00AE0CBE030274FFFD18E6CDF8E5816D602F
:1000EE0006D0E0F61880F5E50C2416C8F6150C803F
:1000FE00D3750D05E50C23240FF87F04C2AFE6106F
:02010E00E61EEB
:1001100030E00310E20C7F0030E10730E3047F0899
:1001200054F4C2E7C6D2AF54804207C20022F6D2CE
:10013000AFD007D006D005D004D003D002D001D074
:1001400000D082D083D0F0D0D0D0E0C20022781688
:10015000A68174036006FF0876FFDFFB7F04E47866
:100160000EF608F608DFFA780F7630900003740177
:1001700093C0E0E493C0E0750D05438901758A18CA
:0B018000758CFCD28CD2AFD2A92203F8
:0708DB00900029E0FFE4F0AA
:0108E20022F3
:10079C00E4FF20B1027F1520B0027F1620B2027F49
:1007AC001720B3027F187590FFC2932097027F0128
:1007BC002096027F052095027F092094027F0D75FB
:1007CC0090FFC2922097027F022096027F0620950E
:1007DC00027F0A2094027F0E7590FFC2912097022F
:1007EC007F032096027F072095027F0B2094027FC7
:1007FC000F7590FFC2902097027F042096027F080D
:0A080C002095027F0C2094027F105B
:0108160022BF
:10089F00900027E0A3F012079C900027EFF0A3E051
:0E08AF00FF600B900027E07005900029EFF02D
:0108BD002218
:10018B00EFD3940340037FFF22740F2F2FF8E62049
:10019B00E5F4C2AFE64430F6D2AFAE0CEEC39F50DF
:1001AB00210E74162EF8E6F908E618BE030274FF4A
:1001BB00FDED69600909E71919F7090980F31616AE
:1001CB0080DAEED39F400405810581EED39F402258
:1001DB0074162EF808E6F9EEB50C02A9811806067E
:1001EB00E6FDED6960091919E70909F71980F31E96
:1001FB0080D9EF2416F8E604F8EF2F049000039350
:09020B00F608EF2F93F67F0022A4
:100214008FF0E4FFFEE50C23240EF8C2A930F70D9D
:100224007F08E6600B2DF660325030800730F1060F
:10023400EDF660277E020830F010C2AFE610E72525
:100244000E30E20CD2AF7F048014C2AFE610E71583
:1002540054EC4EF6D2AFD2A902008A7F0808EF44CC
:0F02640083F4C2AF56C6D2AFD2A954804FFF2247
:10071C0002014EE493A3F8E493A34003F68001F2A4
:10072C0008DFF48029E493A3F85407240CC8C333DE
:10073C00C4540F4420C8834004F456800146F6DFAD
:10074C00E4800B0102040810204080900817E47E1E
:10075C00019360BCA3FF543F30E509541FFEE493A2
:10076C00A360010ECF54C025E060A840B8E493A369
:10077C00FAE493A3F8E493A3C8C582C8CAC583CA94
:10078C00F0A3C8C582C8CAC583CADFE9DEE780BE4C
:01085A00009D
:10085B00C2D5E830E70FB2D5E4C39BFBE49AFAE4C8
:10086B0099F9E498F8EC30E717B2D5120891120415
:10087B00F3E4C39BFBE49AFAE499F9E498F8800358
:10088B001204F330D50DE4C39FFFE49EFEE49DFDFF
:04089B00E49CFC22BB
:0C047A00ECF0A3EDF0A3EEF0A3EFF022F5
:10048600A8828583F0D083D08212049D12049D1227
:10049600049D12049DE473E493A3C583C5F0C5834C
:1004A600C8C582C8F0A3C583C5F0C583C8C582C8C0
:0104B6002223
:1004B70075F008758200EF2FFFEE33FECD33CDCCFC
:1004C70033CCC58233C5829BED9AEC99E58298407F
:1004D7000CF582EE9BFEED9AFDEC99FC0FD5F0D65C
:1004E700E4CEFBE4CDFAE4CCF9A88222B800C1B986
:1004F7000059BA002DEC8BF084CFCECDFCE5F0CBC4
:10050700F97818EF2FFFEE33FEED33FDEC33FCEBFC
:1005170033FB10D703994004EB99FB0FD8E5E4F9B7
:10052700FA227818EF2FFFEE33FEED33FDEC33FCA4
:10053700C933C910D7059BE99A4007EC9BFCE99A98
:10054700F90FD8E0E4C9FAE4CCFB2275F010EF2FDD
:10055700FFEE33FEED33FDCC33CCC833C810D707DD
:100567009BEC9AE899400AED9BFDEC9AFCE899F818
:0E0577000FD5F0DAE4CDFBE4CCFAE4C8F922AB
:00000001FF
